{
  "_format": "hh-sol-artifact-1",
  "contractName": "SecureResume",
  "sourceName": "contracts/SecureResume.sol",
  "abi": [
    {
      "anonymous": false,
      "inputs": [
        {
          "indexed": true,
          "internalType": "address",
          "name": "hr",
          "type": "address"
        }
      ],
      "name": "HRAuthorized",
      "type": "event"
    },
    {
      "anonymous": false,
      "inputs": [
        {
          "indexed": true,
          "internalType": "address",
          "name": "hr",
          "type": "address"
        }
      ],
      "name": "HRRevoked",
      "type": "event"
    },
    {
      "anonymous": false,
      "inputs": [
        {
          "indexed": true,
          "internalType": "address",
          "name": "user",
          "type": "address"
        }
      ],
      "name": "ResumeSubmitted",
      "type": "event"
    },
    {
      "anonymous": false,
      "inputs": [
        {
          "indexed": true,
          "internalType": "address",
          "name": "user",
          "type": "address"
        }
      ],
      "name": "ResumeUpdated",
      "type": "event"
    },
    {
      "inputs": [
        {
          "internalType": "address",
          "name": "hr",
          "type": "address"
        }
      ],
      "name": "authorizeHR",
      "outputs": [],
      "stateMutability": "nonpayable",
      "type": "function"
    },
    {
      "inputs": [
        {
          "internalType": "address",
          "name": "candidate",
          "type": "address"
        },
        {
          "internalType": "uint256[]",
          "name": "skillIndices",
          "type": "uint256[]"
        }
      ],
      "name": "calculateSkillScore",
      "outputs": [
        {
          "internalType": "euint32",
          "name": "",
          "type": "bytes32"
        }
      ],
      "stateMutability": "nonpayable",
      "type": "function"
    },
    {
      "inputs": [
        {
          "internalType": "address",
          "name": "candidate",
          "type": "address"
        },
        {
          "internalType": "uint256",
          "name": "skillIndex",
          "type": "uint256"
        }
      ],
      "name": "evaluateSkillMatch",
      "outputs": [
        {
          "internalType": "euint32",
          "name": "",
          "type": "bytes32"
        }
      ],
      "stateMutability": "nonpayable",
      "type": "function"
    },
    {
      "inputs": [
        {
          "internalType": "address",
          "name": "user",
          "type": "address"
        }
      ],
      "name": "getResumeInfo",
      "outputs": [
        {
          "internalType": "string",
          "name": "name",
          "type": "string"
        },
        {
          "internalType": "string",
          "name": "education",
          "type": "string"
        },
        {
          "internalType": "string",
          "name": "workExperience",
          "type": "string"
        },
        {
          "internalType": "string[]",
          "name": "skillNames",
          "type": "string[]"
        },
        {
          "internalType": "uint64",
          "name": "createdAt",
          "type": "uint64"
        },
        {
          "internalType": "uint64",
          "name": "updatedAt",
          "type": "uint64"
        }
      ],
      "stateMutability": "view",
      "type": "function"
    },
    {
      "inputs": [
        {
          "internalType": "address",
          "name": "user",
          "type": "address"
        }
      ],
      "name": "getSkillLevels",
      "outputs": [
        {
          "internalType": "euint32[]",
          "name": "",
          "type": "bytes32[]"
        }
      ],
      "stateMutability": "view",
      "type": "function"
    },
    {
      "inputs": [],
      "name": "getStats",
      "outputs": [
        {
          "internalType": "uint256",
          "name": "totalResumes",
          "type": "uint256"
        }
      ],
      "stateMutability": "view",
      "type": "function"
    },
    {
      "inputs": [
        {
          "internalType": "address",
          "name": "user",
          "type": "address"
        }
      ],
      "name": "hasResume",
      "outputs": [
        {
          "internalType": "bool",
          "name": "",
          "type": "bool"
        }
      ],
      "stateMutability": "view",
      "type": "function"
    },
    {
      "inputs": [
        {
          "internalType": "address",
          "name": "",
          "type": "address"
        }
      ],
      "name": "hrAddresses",
      "outputs": [
        {
          "internalType": "bool",
          "name": "",
          "type": "bool"
        }
      ],
      "stateMutability": "view",
      "type": "function"
    },
    {
      "inputs": [],
      "name": "protocolId",
      "outputs": [
        {
          "internalType": "uint256",
          "name": "",
          "type": "uint256"
        }
      ],
      "stateMutability": "pure",
      "type": "function"
    },
    {
      "inputs": [
        {
          "internalType": "address",
          "name": "hr",
          "type": "address"
        }
      ],
      "name": "revokeHR",
      "outputs": [],
      "stateMutability": "nonpayable",
      "type": "function"
    },
    {
      "inputs": [
        {
          "internalType": "string",
          "name": "name",
          "type": "string"
        },
        {
          "internalType": "string",
          "name": "education",
          "type": "string"
        },
        {
          "internalType": "string",
          "name": "workExperience",
          "type": "string"
        },
        {
          "internalType": "string[]",
          "name": "skillNames",
          "type": "string[]"
        },
        {
          "internalType": "externalEuint32[]",
          "name": "skillLevelsExt",
          "type": "bytes32[]"
        },
        {
          "internalType": "bytes",
          "name": "inputProof",
          "type": "bytes"
        }
      ],
      "name": "submitResume",
      "outputs": [],
      "stateMutability": "nonpayable",
      "type": "function"
    },
    {
      "inputs": [
        {
          "internalType": "string",
          "name": "name",
          "type": "string"
        },
        {
          "internalType": "string",
          "name": "education",
          "type": "string"
        },
        {
          "internalType": "string",
          "name": "workExperience",
          "type": "string"
        },
        {
          "internalType": "string[]",
          "name": "skillNames",
          "type": "string[]"
        },
        {
          "internalType": "externalEuint32[]",
          "name": "skillLevelsExt",
          "type": "bytes32[]"
        },
        {
          "internalType": "bytes",
          "name": "inputProof",
          "type": "bytes"
        }
      ],
      "name": "updateResume",
      "outputs": [],
      "stateMutability": "nonpayable",
      "type": "function"
    }
  ],
  "bytecode": "0x608060405234801561000f575f5ffd5b5061018a6100ae604080516080810182525f80825260208201819052918101829052606081019190915250604080516080810182527350157cffd6bbfa2dece204a89ec419c23ef5755d815273cd3ab3bd6bcc0c0bf3e27912a92043e817b1cf69602082015273a02cda4ca3a71d7c46997716f4283aa851c2881291810191909152731364cbbf2cdf5032c47d8226a6f6fbd2afcdacac606082015290565b80517f9e7b61f58c47dc699ac88507c4f5bb9f121c03808c5676a8078fe583e464970080546001600160a01b03199081166001600160a01b039384161790915560208301517f9e7b61f58c47dc699ac88507c4f5bb9f121c03808c5676a8078fe583e46497018054831691841691909117905560408301517f9e7b61f58c47dc699ac88507c4f5bb9f121c03808c5676a8078fe583e46497028054831691841691909117905560608301517f9e7b61f58c47dc699ac88507c4f5bb9f121c03808c5676a8078fe583e46497038054909216921691909117905550565b6122a9806101975f395ff3fe608060405234801561000f575f5ffd5b50600436106100cf575f3560e01c8063a4a06db21161007d578063d24a5e9a11610058578063d24a5e9a146101d8578063da1f12ab146101fd578063eb870b8214610205575f5ffd5b8063a4a06db21461019d578063a90cd594146101b0578063c59d4847146101d2575f5ffd5b80633764fcff116100ad5780633764fcff146101325780636d898b00146101455780636dba272514610158575f5ffd5b8063062b415d146100d3578063074252d1146100e8578063183329f314610111575b5f5ffd5b6100e66100e1366004611c96565b610218565b005b6100fb6100f6366004611de7565b61070f565b6040516101089190611e00565b60405180910390f35b61012461011f366004611e42565b6108f6565b604051908152602001610108565b6100e6610140366004611c96565b610b60565b6100e6610153366004611de7565b610f52565b61018d610166366004611de7565b6001600160a01b03165f908152602081905260409020600d0154600160881b900460ff1690565b6040519015158152602001610108565b6101246101ab366004611e91565b610fa0565b61018d6101be366004611de7565b60016020525f908152604090205460ff1681565b5f610124565b6101eb6101e6366004611de7565b61119a565b60405161010896959493929190611ee7565b612711610124565b6100e6610213366004611de7565b61180e565b335f908152602081905260409020600d0154600160881b900460ff1661027d5760405162461bcd60e51b815260206004820152601560248201527414995cdd5b5948191bd95cc81b9bdd08195e1a5cdd605a1b60448201526064015b60405180910390fd5b8483146102cc5760405162461bcd60e51b815260206004820152601c60248201527f536b696c6c20617272617973206c656e677468206d69736d61746368000000006044820152606401610274565b84158015906102dc575060058511155b6103285760405162461bcd60e51b815260206004820152601460248201527f4d757374206861766520312d3520736b696c6c730000000000000000000000006044820152606401610274565b8a6103755760405162461bcd60e51b815260206004820152601460248201527f4e616d652063616e6e6f7420626520656d7074790000000000000000000000006044820152606401610274565b335f9081526020819052604090208061038f8d8f83612046565b506001810161039f8b8d83612046565b50600281016103af898b83612046565b50600d8101805467ffffffffffffffff421669010000000000000000000270ffffffffffffffff0000000000000000ff1990911660ff89161717905560408051602081019091525f815260088201906104089082612100565b5060408051602081019091525f815260098201906104269082612100565b5060408051602081019091525f8152600a8201906104449082612100565b5060408051602081019091525f8152600b8201906104629082612100565b5060408051602081019091525f8152600c8201906104809082612100565b505f5b868110156106d5575f6104e38787848181106104a1576104a16121bb565b9050602002013586868080601f0160208091040260200160405190810160405280939291908181526020018383808284375f9201919091525061185692505050565b9050815f0361054a5760038301819055888883818110610505576105056121bb565b905060200281019061051791906121cf565b6008850191610527919083612046565b506105358360030154611863565b50610544836003015433611872565b506106cc565b816001036105aa576004830181905588888381811061056b5761056b6121bb565b905060200281019061057d91906121cf565b600985019161058d919083612046565b5061059b8360040154611863565b50610544836004015433611872565b8160020361060a57600583018190558888838181106105cb576105cb6121bb565b90506020028101906105dd91906121cf565b600a8501916105ed919083612046565b506105fb8360050154611863565b50610544836005015433611872565b8160030361066a576006830181905588888381811061062b5761062b6121bb565b905060200281019061063d91906121cf565b600b85019161064d919083612046565b5061065b8360060154611863565b50610544836006015433611872565b816004036106cc576007830181905588888381811061068b5761068b6121bb565b905060200281019061069d91906121cf565b600c8501916106ad919083612046565b506106bb8360070154611863565b506106ca836007015433611872565b505b50600101610483565b5060405133907f2f553078529a300e0bdcc308c536a5568db4bea49762041dd34c279de778e7b4905f90a250505050505050505050505050565b6001600160a01b0381165f908152602081905260409020600d0154606090600160881b900460ff1661077b5760405162461bcd60e51b815260206004820152601560248201527414995cdd5b5948191bd95cc81b9bdd08195e1a5cdd605a1b6044820152606401610274565b6001600160a01b0382165f908152602081905260408120600d81015490919060ff1667ffffffffffffffff8111156107b5576107b5611fae565b6040519080825280602002602001820160405280156107de578160200160208202803683370190505b50600d830154909150600160ff90911610610817578160030154815f8151811061080a5761080a6121bb565b6020026020010181815250505b600d820154600260ff9091161061084d57816004015481600181518110610840576108406121bb565b6020026020010181815250505b600d820154600360ff9091161061088357816005015481600281518110610876576108766121bb565b6020026020010181815250505b600d820154600460ff909116106108b9578160060154816003815181106108ac576108ac6121bb565b6020026020010181815250505b600d820154600560ff909116106108ef578160070154816004815181106108e2576108e26121bb565b6020026020010181815250505b9392505050565b335f9081526001602052604081205460ff166109545760405162461bcd60e51b815260206004820152601160248201527f4e6f7420617574686f72697a65642048520000000000000000000000000000006044820152606401610274565b6001600160a01b0384165f908152602081905260409020600d0154600160881b900460ff166109bd5760405162461bcd60e51b815260206004820152601560248201527414995cdd5b5948191bd95cc81b9bdd08195e1a5cdd605a1b6044820152606401610274565b6001600160a01b0384165f908152602081905260408120906109de81611884565b90505f5b84811015610b4157600d83015460ff16868683818110610a0457610a046121bb565b9050602002013510610a4e5760405162461bcd60e51b8152602060048201526013602482015272092dcecc2d8d2c840e6d6d2d8d840d2dcc8caf606b1b6044820152606401610274565b5f868683818110610a6157610a616121bb565b905060200201355f03610a7957506003830154610b2b565b868683818110610a8b57610a8b6121bb565b90506020020135600103610aa457506004830154610b2b565b868683818110610ab657610ab66121bb565b90506020020135600203610acf57506005830154610b2b565b868683818110610ae157610ae16121bb565b90506020020135600303610afa57506006830154610b2b565b868683818110610b0c57610b0c6121bb565b90506020020135600403610b2557506007830154610b2b565b50610b39565b610b35838261189c565b9250505b6001016109e2565b50610b4b81611863565b50610b568133611872565b5095945050505050565b848314610baf5760405162461bcd60e51b815260206004820152601c60248201527f536b696c6c20617272617973206c656e677468206d69736d61746368000000006044820152606401610274565b8415801590610bbf575060058511155b610c0b5760405162461bcd60e51b815260206004820152601460248201527f4d757374206861766520312d3520736b696c6c730000000000000000000000006044820152606401610274565b8a610c585760405162461bcd60e51b815260206004820152601460248201527f4e616d652063616e6e6f7420626520656d7074790000000000000000000000006044820152606401610274565b335f90815260208190526040902080610c728d8f83612046565b5060018101610c828b8d83612046565b5060028101610c92898b83612046565b50600d8101805471ff000000000000000000000000000000000019690100000000000000000067ffffffffffffffff42169081029190911671ffffffffffffffffff000000000000000000196101009290920268ffffffffffffffffff1990931660ff8b1617929092171617600160881b1790555f5b86811015610f18575f610d268787848181106104a1576104a16121bb565b9050815f03610d8d5760038301819055888883818110610d4857610d486121bb565b9050602002810190610d5a91906121cf565b6008850191610d6a919083612046565b50610d788360030154611863565b50610d87836003015433611872565b50610f0f565b81600103610ded5760048301819055888883818110610dae57610dae6121bb565b9050602002810190610dc091906121cf565b6009850191610dd0919083612046565b50610dde8360040154611863565b50610d87836004015433611872565b81600203610e4d5760058301819055888883818110610e0e57610e0e6121bb565b9050602002810190610e2091906121cf565b600a850191610e30919083612046565b50610e3e8360050154611863565b50610d87836005015433611872565b81600303610ead5760068301819055888883818110610e6e57610e6e6121bb565b9050602002810190610e8091906121cf565b600b850191610e90919083612046565b50610e9e8360060154611863565b50610d87836006015433611872565b81600403610f0f5760078301819055888883818110610ece57610ece6121bb565b9050602002810190610ee091906121cf565b600c850191610ef0919083612046565b50610efe8360070154611863565b50610f0d836007015433611872565b505b50600101610d08565b5060405133907f47366e32953474aab4e7614c7f4831cb4fe7e54b51b3e5c3ba0fdafa2af6a0e2905f90a250505050505050505050505050565b6001600160a01b0381165f818152600160208190526040808320805460ff1916909217909155517f3a870bf64864bca8e5c9b67d7bc058536151ae9ed4e30e455f2c785a5f0ad7e39190a250565b335f9081526001602052604081205460ff16610ffe5760405162461bcd60e51b815260206004820152601160248201527f4e6f7420617574686f72697a65642048520000000000000000000000000000006044820152606401610274565b6001600160a01b0383165f908152602081905260409020600d0154600160881b900460ff166110675760405162461bcd60e51b815260206004820152601560248201527414995cdd5b5948191bd95cc81b9bdd08195e1a5cdd605a1b6044820152606401610274565b6001600160a01b0383165f908152602081905260409020600d015460ff1682106110c95760405162461bcd60e51b8152602060048201526013602482015272092dcecc2d8d2c840e6d6d2d8d840d2dcc8caf606b1b6044820152606401610274565b6001600160a01b0383165f908152602081905260408120908381036110f35750600381015461117d565b836001036111065750600481015461117d565b836002036111195750600581015461117d565b8360030361112c5750600681015461117d565b8360040361113f5750600781015461117d565b60405162461bcd60e51b8152602060048201526013602482015272092dcecc2d8d2c840e6d6d2d8d840d2dcc8caf606b1b6044820152606401610274565b61118681611863565b506111918133611872565b50949350505050565b6001600160a01b0381165f908152602081905260408120600d01546060918291829182918190600160881b900460ff1661120e5760405162461bcd60e51b815260206004820152601560248201527414995cdd5b5948191bd95cc81b9bdd08195e1a5cdd605a1b6044820152606401610274565b6001600160a01b0387165f908152602081905260408120600d81015490919060ff1667ffffffffffffffff81111561124857611248611fae565b60405190808252806020026020018201604052801561127b57816020015b60608152602001906001900390816112665790505b50600d830154909150600160ff909116106113395781600801805461129f90611fc2565b80601f01602080910402602001604051908101604052809291908181526020018280546112cb90611fc2565b80156113165780601f106112ed57610100808354040283529160200191611316565b820191905f5260205f20905b8154815290600101906020018083116112f957829003601f168201915b5050505050815f8151811061132d5761132d6121bb565b60200260200101819052505b600d820154600260ff909116106113f45781600901805461135990611fc2565b80601f016020809104026020016040519081016040528092919081815260200182805461138590611fc2565b80156113d05780601f106113a7576101008083540402835291602001916113d0565b820191905f5260205f20905b8154815290600101906020018083116113b357829003601f168201915b5050505050816001815181106113e8576113e86121bb565b60200260200101819052505b600d820154600360ff909116106114af5781600a01805461141490611fc2565b80601f016020809104026020016040519081016040528092919081815260200182805461144090611fc2565b801561148b5780601f106114625761010080835404028352916020019161148b565b820191905f5260205f20905b81548152906001019060200180831161146e57829003601f168201915b5050505050816002815181106114a3576114a36121bb565b60200260200101819052505b600d820154600460ff9091161061156a5781600b0180546114cf90611fc2565b80601f01602080910402602001604051908101604052809291908181526020018280546114fb90611fc2565b80156115465780601f1061151d57610100808354040283529160200191611546565b820191905f5260205f20905b81548152906001019060200180831161152957829003601f168201915b50505050508160038151811061155e5761155e6121bb565b60200260200101819052505b600d820154600560ff909116106116255781600c01805461158a90611fc2565b80601f01602080910402602001604051908101604052809291908181526020018280546115b690611fc2565b80156116015780601f106115d857610100808354040283529160200191611601565b820191905f5260205f20905b8154815290600101906020018083116115e457829003601f168201915b505050505081600481518110611619576116196121bb565b60200260200101819052505b600d8201548254839160018301916002840191859167ffffffffffffffff6101008304811692690100000000000000000090041690869061166590611fc2565b80601f016020809104026020016040519081016040528092919081815260200182805461169190611fc2565b80156116dc5780601f106116b3576101008083540402835291602001916116dc565b820191905f5260205f20905b8154815290600101906020018083116116bf57829003601f168201915b505050505095508480546116ef90611fc2565b80601f016020809104026020016040519081016040528092919081815260200182805461171b90611fc2565b80156117665780601f1061173d57610100808354040283529160200191611766565b820191905f5260205f20905b81548152906001019060200180831161174957829003601f168201915b5050505050945083805461177990611fc2565b80601f01602080910402602001604051908101604052809291908181526020018280546117a590611fc2565b80156117f05780601f106117c7576101008083540402835291602001916117f0565b820191905f5260205f20905b8154815290600101906020018083116117d357829003601f168201915b50505050509350975097509750975097509750505091939550919395565b6001600160a01b0381165f81815260016020526040808220805460ff19169055517fc42b49eb3125a66d1757221ff561f492edb801dde6252972e1839545041fc4b69190a250565b5f6108ef838360046118ca565b5f61186e82306119ea565b5090565b5f61187d83836119ea565b5090919050565b5f6118968263ffffffff166004611a73565b92915050565b5f826118ae576118ab5f611884565b92505b816118bf576118bc5f611884565b91505b6108ef83835f611b30565b7f9e7b61f58c47dc699ac88507c4f5bb9f121c03808c5676a8078fe583e46497015460405163196d0b9b60e01b81525f917f9e7b61f58c47dc699ac88507c4f5bb9f121c03808c5676a8078fe583e4649700916001600160a01b039091169063196d0b9b90611943908890339089908990600401612232565b6020604051808303815f875af115801561195f573d5f5f3e3d5ffd5b505050506040513d601f19601f820116820180604052508101906119839190612271565b8154604051630f8e573b60e21b8152600481018390523360248201529193506001600160a01b031690633e395cec906044015f604051808303815f87803b1580156119cc575f5ffd5b505af11580156119de573d5f5f3e3d5ffd5b50505050509392505050565b5f7f9e7b61f58c47dc699ac88507c4f5bb9f121c03808c5676a8078fe583e46497008054604051635ca4b5b160e11b8152600481018690526001600160a01b03858116602483015292935091169063b9496b62906044015f604051808303815f87803b158015611a58575f5ffd5b505af1158015611a6a573d5f5f3e3d5ffd5b50505050505050565b7f9e7b61f58c47dc699ac88507c4f5bb9f121c03808c5676a8078fe583e464970154604051639cd07acb60e01b81525f917f9e7b61f58c47dc699ac88507c4f5bb9f121c03808c5676a8078fe583e4649700916001600160a01b0390911690639cd07acb90611ae89087908790600401612288565b6020604051808303815f875af1158015611b04573d5f5f3e3d5ffd5b505050506040513d601f19601f82011682018060405250810190611b289190612271565b949350505050565b5f5f8215611b435750600160f81b611b46565b505f5b5f7f9e7b61f58c47dc699ac88507c4f5bb9f121c03808c5676a8078fe583e4649700600181015460405163022f65e760e31b815260048101899052602481018890527fff00000000000000000000000000000000000000000000000000000000000000851660448201529192506001600160a01b03169063117b2f38906064016020604051808303815f875af1158015611be2573d5f5f3e3d5ffd5b505050506040513d601f19601f82011682018060405250810190611c069190612271565b9695505050505050565b5f5f83601f840112611c20575f5ffd5b50813567ffffffffffffffff811115611c37575f5ffd5b602083019150836020828501011115611c4e575f5ffd5b9250929050565b5f5f83601f840112611c65575f5ffd5b50813567ffffffffffffffff811115611c7c575f5ffd5b6020830191508360208260051b8501011115611c4e575f5ffd5b5f5f5f5f5f5f5f5f5f5f5f5f60c08d8f031215611cb1575f5ffd5b67ffffffffffffffff8d351115611cc6575f5ffd5b611cd38e8e358f01611c10565b909c509a5067ffffffffffffffff60208e01351115611cf0575f5ffd5b611d008e60208f01358f01611c10565b909a50985067ffffffffffffffff60408e01351115611d1d575f5ffd5b611d2d8e60408f01358f01611c10565b909850965067ffffffffffffffff60608e01351115611d4a575f5ffd5b611d5a8e60608f01358f01611c55565b909650945067ffffffffffffffff60808e01351115611d77575f5ffd5b611d878e60808f01358f01611c55565b909450925067ffffffffffffffff60a08e01351115611da4575f5ffd5b611db48e60a08f01358f01611c10565b81935080925050509295989b509295989b509295989b565b80356001600160a01b0381168114611de2575f5ffd5b919050565b5f60208284031215611df7575f5ffd5b6108ef82611dcc565b602080825282518282018190525f918401906040840190835b81811015611e37578351835260209384019390920191600101611e19565b509095945050505050565b5f5f5f60408486031215611e54575f5ffd5b611e5d84611dcc565b9250602084013567ffffffffffffffff811115611e78575f5ffd5b611e8486828701611c55565b9497909650939450505050565b5f5f60408385031215611ea2575f5ffd5b611eab83611dcc565b946020939093013593505050565b5f81518084528060208401602086015e5f602082860101526020601f19601f83011685010191505092915050565b60c081525f611ef960c0830189611eb9565b8281036020840152611f0b8189611eb9565b90508281036040840152611f1f8188611eb9565b9050828103606084015280865180835260208301915060208160051b840101602089015f5b83811015611f7657601f19868403018552611f60838351611eb9565b6020958601959093509190910190600101611f44565b505067ffffffffffffffff881660808701529350611f9392505050565b67ffffffffffffffff831660a0830152979650505050505050565b634e487b7160e01b5f52604160045260245ffd5b600181811c90821680611fd657607f821691505b602082108103611ff457634e487b7160e01b5f52602260045260245ffd5b50919050565b601f82111561204157805f5260205f20601f840160051c8101602085101561201f5750805b601f840160051c820191505b8181101561203e575f815560010161202b565b50505b505050565b67ffffffffffffffff83111561205e5761205e611fae565b6120728361206c8354611fc2565b83611ffa565b5f601f8411600181146120a3575f851561208c5750838201355b5f19600387901b1c1916600186901b17835561203e565b5f83815260208120601f198716915b828110156120d257868501358255602094850194600190920191016120b2565b50868210156120ee575f1960f88860031b161c19848701351681555b505060018560011b0183555050505050565b815167ffffffffffffffff81111561211a5761211a611fae565b61212e816121288454611fc2565b84611ffa565b6020601f821160018114612160575f83156121495750848201515b5f19600385901b1c1916600184901b17845561203e565b5f84815260208120601f198516915b8281101561218f578785015182556020948501946001909201910161216f565b50848210156121ac57868401515f19600387901b60f8161c191681555b50505050600190811b01905550565b634e487b7160e01b5f52603260045260245ffd5b5f5f8335601e198436030181126121e4575f5ffd5b83018035915067ffffffffffffffff8211156121fe575f5ffd5b602001915036819003821315611c4e575f5ffd5b6054811061222e57634e487b7160e01b5f52602160045260245ffd5b9052565b8481526001600160a01b0384166020820152608060408201525f6122596080830185611eb9565b90506122686060830184612212565b95945050505050565b5f60208284031215612281575f5ffd5b5051919050565b828152604081016108ef602083018461221256fea164736f6c634300081b000a",
  "linkReferences": {},
  "deployedLinkReferences": {}
}